:020000040800F2
:100000000050002075020008C5020008C502000863
:10001000C5020008C5020008C50200080000000073
:10002000000000000000000000000000C502000801
:10003000C502000800000000C5020008C502000853
:10004000C5020008C5020008C5020008C502000874
:10005000C5020008C5020008C5020008C502000864
:10006000C5020008C5020008C5020008C502000854
:10007000C5020008C5020008C5020008C502000844
:10008000C5020008C5020008C5020008C502000834
:10009000C5020008C5020008C5020008C502000824
:1000A000C5020008C5020008C5020008C502000814
:1000B000C5020008C5020008C5020008C502000804
:1000C000C5020008C5020008C5020008C5020008F4
:1000D000C5020008C5020008C5020008C5020008E4
:1000E000C5020008C502000800000000C5020008A3
:1000F000C5020008C5020008C5020008C5020008C4
:10010000C5020008C5020008C5020008C5020008B3
:10011000C5020008C5020008C5020008C5020008A3
:10012000C5020008C5020008C5020008C502000893
:1001300010B5054C237833B9044B13B10448AFF321
:1001400000800123237010BD00000020000000008B
:100150001003000808B5034B1BB103490348AFF374
:10016000008008BD0000000004000020100300080B
:1001700080B500AF2F4B9B692E4A43F00403936177
:100180002C4B9B692B4A43F0080393612A4B1B6855
:10019000294AC3F313031360274B1B68264A43F015
:1001A000885343F480131360244B1B68234A23F0C5
:1001B0000F031360214B1B68204A43F008031360B0
:1001C0001E4BDB681D4A23F00103D3601A4BDB682A
:1001D000194A43F08003D360184B9B6803F0010376
:1001E000002BF3D0144BDB68134A23F08003D36059
:1001F000114BDB68104A43F04003D3604FF4FA60C0
:1002000000F01EF80C4BDB680B4A23F04003D36070
:10021000094BDB68084A43F02003D36041F2883081
:1002200000F00EF8044BDB68034A23F02003D36090
:10023000CCE700BF0010024000080140000C014064
:1002400080B485B000AF78600023FB6003E000BF9E
:10025000FB680133FB607B684FF4FA7202FB03F327
:10026000FA689A42F3D300BF00BF1437BD4680BC82
:10027000704700000D488546AFF300800C480D49DB
:100280000D4A002302E0D458C4500433C4188C42F1
:10029000F9D30A4A0A4C002301E013600432A24257
:1002A000FBD300F011F8FFF763FFFEE700500020DA
:1002B00000000020000000203003000800000020A3
:1002C0001C000020FEE7000070B500260C4D0D4C10
:1002D000641BA410A64209D100F01AF800260A4DAA
:1002E0000A4C641BA410A64205D170BD55F8043B0E
:1002F00098470136EEE755F8043B98470136F2E798
:100300002803000828030008280300082C0300081D
:10031000F8B500BFF8BC08BC9E467047F8B500BFF2
:08032000F8BC08BC9E467047C2
:040328005501000873
:04032C003101000893
:040000050800027578
:00000001FF
